{
  "contractName": "LetterOfRecommendation",
  "abi": [
    {
      "anonymous": false,
      "inputs": [
        {
          "indexed": true,
          "internalType": "uint256",
          "name": "id",
          "type": "uint256"
        },
        {
          "indexed": false,
          "internalType": "address",
          "name": "requester",
          "type": "address"
        },
        {
          "indexed": false,
          "internalType": "string",
          "name": "studentName",
          "type": "string"
        },
        {
          "indexed": false,
          "internalType": "string",
          "name": "university",
          "type": "string"
        },
        {
          "indexed": false,
          "internalType": "string",
          "name": "program",
          "type": "string"
        }
      ],
      "name": "NewRecommendation",
      "type": "event"
    },
    {
      "anonymous": false,
      "inputs": [
        {
          "indexed": true,
          "internalType": "uint256",
          "name": "id",
          "type": "uint256"
        },
        {
          "indexed": false,
          "internalType": "address",
          "name": "approver",
          "type": "address"
        }
      ],
      "name": "RecommendationApproved",
      "type": "event"
    },
    {
      "inputs": [
        {
          "internalType": "uint256",
          "name": "",
          "type": "uint256"
        }
      ],
      "name": "recommendations",
      "outputs": [
        {
          "internalType": "address",
          "name": "requester",
          "type": "address"
        },
        {
          "internalType": "string",
          "name": "studentName",
          "type": "string"
        },
        {
          "internalType": "string",
          "name": "university",
          "type": "string"
        },
        {
          "internalType": "string",
          "name": "program",
          "type": "string"
        },
        {
          "internalType": "string",
          "name": "recommendationLetter",
          "type": "string"
        },
        {
          "internalType": "bool",
          "name": "approved",
          "type": "bool"
        }
      ],
      "stateMutability": "view",
      "type": "function",
      "constant": true
    },
    {
      "inputs": [
        {
          "internalType": "string",
          "name": "_studentName",
          "type": "string"
        },
        {
          "internalType": "string",
          "name": "_university",
          "type": "string"
        },
        {
          "internalType": "string",
          "name": "_program",
          "type": "string"
        },
        {
          "internalType": "string",
          "name": "_recommendationLetter",
          "type": "string"
        }
      ],
      "name": "addRecommendation",
      "outputs": [
        {
          "internalType": "uint256",
          "name": "id",
          "type": "uint256"
        }
      ],
      "stateMutability": "nonpayable",
      "type": "function"
    },
    {
      "inputs": [
        {
          "internalType": "uint256",
          "name": "id",
          "type": "uint256"
        }
      ],
      "name": "approveRecommendation",
      "outputs": [],
      "stateMutability": "nonpayable",
      "type": "function"
    },
    {
      "inputs": [
        {
          "internalType": "uint256",
          "name": "id",
          "type": "uint256"
        }
      ],
      "name": "getRecommendation",
      "outputs": [
        {
          "internalType": "address",
          "name": "",
          "type": "address"
        },
        {
          "internalType": "string",
          "name": "",
          "type": "string"
        },
        {
          "internalType": "string",
          "name": "",
          "type": "string"
        },
        {
          "internalType": "string",
          "name": "",
          "type": "string"
        },
        {
          "internalType": "string",
          "name": "",
          "type": "string"
        },
        {
          "internalType": "bool",
          "name": "",
          "type": "bool"
        }
      ],
      "stateMutability": "view",
      "type": "function",
      "constant": true
    }
  ],
  "bytecode": "0x608060405234801561001057600080fd5b50611436806100206000396000f3fe608060405234801561001057600080fd5b506004361061004c5760003560e01c80634bb55310146100515780637f73e19d1461006d5780638560c531146100a2578063a1536afe146100d2575b600080fd5b61006b60048036038101906100669190610a7f565b610107565b005b61008760048036038101906100829190610a7f565b61031a565b60405161009996959493929190610b98565b60405180910390f35b6100bc60048036038101906100b79190610d4a565b6105a3565b6040516100c99190610e30565b60405180910390f35b6100ec60048036038101906100e79190610a7f565b610739565b6040516100fe96959493929190610b98565b60405180910390f35b600073ffffffffffffffffffffffffffffffffffffffff1660008083815260200190815260200160002060000160009054906101000a900473ffffffffffffffffffffffffffffffffffffffff1673ffffffffffffffffffffffffffffffffffffffff16036101ab576040517f08c379a00000000000000000000000000000000000000000000000000000000081526004016101a290610e97565b60405180910390fd5b60008082815260200190815260200160002060000160009054906101000a900473ffffffffffffffffffffffffffffffffffffffff1673ffffffffffffffffffffffffffffffffffffffff163373ffffffffffffffffffffffffffffffffffffffff160361024e576040517f08c379a000000000000000000000000000000000000000000000000000000000815260040161024590610f29565b60405180910390fd5b60008082815260200190815260200160002060050160009054906101000a900460ff16156102b1576040517f08c379a00000000000000000000000000000000000000000000000000000000081526004016102a890610f95565b60405180910390fd5b600160008083815260200190815260200160002060050160006101000a81548160ff021916908315150217905550807f8904fe2864ab38154a1a7229ecf8ead764305548e584d58fb62f397965fa9f403360405161030f9190610fb5565b60405180910390a250565b60006020528060005260406000206000915090508060000160009054906101000a900473ffffffffffffffffffffffffffffffffffffffff169080600101805461036390610fff565b80601f016020809104026020016040519081016040528092919081815260200182805461038f90610fff565b80156103dc5780601f106103b1576101008083540402835291602001916103dc565b820191906000526020600020905b8154815290600101906020018083116103bf57829003601f168201915b5050505050908060020180546103f190610fff565b80601f016020809104026020016040519081016040528092919081815260200182805461041d90610fff565b801561046a5780601f1061043f5761010080835404028352916020019161046a565b820191906000526020600020905b81548152906001019060200180831161044d57829003601f168201915b50505050509080600301805461047f90610fff565b80601f01602080910402602001604051908101604052809291908181526020018280546104ab90610fff565b80156104f85780601f106104cd576101008083540402835291602001916104f8565b820191906000526020600020905b8154815290600101906020018083116104db57829003601f168201915b50505050509080600401805461050d90610fff565b80601f016020809104026020016040519081016040528092919081815260200182805461053990610fff565b80156105865780601f1061055b57610100808354040283529160200191610586565b820191906000526020600020905b81548152906001019060200180831161056957829003601f168201915b5050505050908060050160009054906101000a900460ff16905086565b600042338686866040516020016105be9594939291906110d5565b6040516020818303038152906040528051906020012060001c90506040518060c001604052803373ffffffffffffffffffffffffffffffffffffffff1681526020018681526020018581526020018481526020018381526020016000151581525060008083815260200190815260200160002060008201518160000160006101000a81548173ffffffffffffffffffffffffffffffffffffffff021916908373ffffffffffffffffffffffffffffffffffffffff160217905550602082015181600101908161068d91906112d4565b5060408201518160020190816106a391906112d4565b5060608201518160030190816106b991906112d4565b5060808201518160040190816106cf91906112d4565b5060a08201518160050160006101000a81548160ff021916908315150217905550905050807f53f38ac190f8d48a7425c2e236c6142a1bcabc1a818e8f70e747d97724425e773387878760405161072994939291906113a6565b60405180910390a2949350505050565b6000606080606080600080600088815260200190815260200160002060000160009054906101000a900473ffffffffffffffffffffffffffffffffffffffff166000808981526020019081526020016000206001016000808a81526020019081526020016000206002016000808b81526020019081526020016000206003016000808c81526020019081526020016000206004016000808d815260200190815260200160002060050160009054906101000a900460ff168480546107fc90610fff565b80601f016020809104026020016040519081016040528092919081815260200182805461082890610fff565b80156108755780601f1061084a57610100808354040283529160200191610875565b820191906000526020600020905b81548152906001019060200180831161085857829003601f168201915b5050505050945083805461088890610fff565b80601f01602080910402602001604051908101604052809291908181526020018280546108b490610fff565b80156109015780601f106108d657610100808354040283529160200191610901565b820191906000526020600020905b8154815290600101906020018083116108e457829003601f168201915b5050505050935082805461091490610fff565b80601f016020809104026020016040519081016040528092919081815260200182805461094090610fff565b801561098d5780601f106109625761010080835404028352916020019161098d565b820191906000526020600020905b81548152906001019060200180831161097057829003601f168201915b505050505092508180546109a090610fff565b80601f01602080910402602001604051908101604052809291908181526020018280546109cc90610fff565b8015610a195780601f106109ee57610100808354040283529160200191610a19565b820191906000526020600020905b8154815290600101906020018083116109fc57829003601f168201915b5050505050915095509550955095509550955091939550919395565b6000604051905090565b600080fd5b600080fd5b6000819050919050565b610a5c81610a49565b8114610a6757600080fd5b50565b600081359050610a7981610a53565b92915050565b600060208284031215610a9557610a94610a3f565b5b6000610aa384828501610a6a565b91505092915050565b600073ffffffffffffffffffffffffffffffffffffffff82169050919050565b6000610ad782610aac565b9050919050565b610ae781610acc565b82525050565b600081519050919050565b600082825260208201905092915050565b60005b83811015610b27578082015181840152602081019050610b0c565b60008484015250505050565b6000601f19601f8301169050919050565b6000610b4f82610aed565b610b598185610af8565b9350610b69818560208601610b09565b610b7281610b33565b840191505092915050565b60008115159050919050565b610b9281610b7d565b82525050565b600060c082019050610bad6000830189610ade565b8181036020830152610bbf8188610b44565b90508181036040830152610bd38187610b44565b90508181036060830152610be78186610b44565b90508181036080830152610bfb8185610b44565b9050610c0a60a0830184610b89565b979650505050505050565b600080fd5b600080fd5b7f4e487b7100000000000000000000000000000000000000000000000000000000600052604160045260246000fd5b610c5782610b33565b810181811067ffffffffffffffff82111715610c7657610c75610c1f565b5b80604052505050565b6000610c89610a35565b9050610c958282610c4e565b919050565b600067ffffffffffffffff821115610cb557610cb4610c1f565b5b610cbe82610b33565b9050602081019050919050565b82818337600083830152505050565b6000610ced610ce884610c9a565b610c7f565b905082815260208101848484011115610d0957610d08610c1a565b5b610d14848285610ccb565b509392505050565b600082601f830112610d3157610d30610c15565b5b8135610d41848260208601610cda565b91505092915050565b60008060008060808587031215610d6457610d63610a3f565b5b600085013567ffffffffffffffff811115610d8257610d81610a44565b5b610d8e87828801610d1c565b945050602085013567ffffffffffffffff811115610daf57610dae610a44565b5b610dbb87828801610d1c565b935050604085013567ffffffffffffffff811115610ddc57610ddb610a44565b5b610de887828801610d1c565b925050606085013567ffffffffffffffff811115610e0957610e08610a44565b5b610e1587828801610d1c565b91505092959194509250565b610e2a81610a49565b82525050565b6000602082019050610e456000830184610e21565b92915050565b7f5265636f6d6d656e646174696f6e206e6f7420666f756e640000000000000000600082015250565b6000610e81601883610af8565b9150610e8c82610e4b565b602082019050919050565b60006020820190508181036000830152610eb081610e74565b9050919050565b7f43616e6e6f7420617070726f7665206f776e207265636f6d6d656e646174696f60008201527f6e00000000000000000000000000000000000000000000000000000000000000602082015250565b6000610f13602183610af8565b9150610f1e82610eb7565b604082019050919050565b60006020820190508181036000830152610f4281610f06565b9050919050565b7f5265636f6d6d656e646174696f6e20616c726561647920617070726f76656400600082015250565b6000610f7f601f83610af8565b9150610f8a82610f49565b602082019050919050565b60006020820190508181036000830152610fae81610f72565b9050919050565b6000602082019050610fca6000830184610ade565b92915050565b7f4e487b7100000000000000000000000000000000000000000000000000000000600052602260045260246000fd5b6000600282049050600182168061101757607f821691505b60208210810361102a57611029610fd0565b5b50919050565b6000819050919050565b61104b61104682610a49565b611030565b82525050565b60008160601b9050919050565b600061106982611051565b9050919050565b600061107b8261105e565b9050919050565b61109361108e82610acc565b611070565b82525050565b600081905092915050565b60006110af82610aed565b6110b98185611099565b93506110c9818560208601610b09565b80840191505092915050565b60006110e1828861103a565b6020820191506110f18287611082565b60148201915061110182866110a4565b915061110d82856110a4565b915061111982846110a4565b91508190509695505050505050565b60008190508160005260206000209050919050565b60006020601f8301049050919050565b600082821b905092915050565b60006008830261118a7fffffffffffffffffffffffffffffffffffffffffffffffffffffffffffffffff8261114d565b611194868361114d565b95508019841693508086168417925050509392505050565b6000819050919050565b60006111d16111cc6111c784610a49565b6111ac565b610a49565b9050919050565b6000819050919050565b6111eb836111b6565b6111ff6111f7826111d8565b84845461115a565b825550505050565b600090565b611214611207565b61121f8184846111e2565b505050565b5b818110156112435761123860008261120c565b600181019050611225565b5050565b601f8211156112885761125981611128565b6112628461113d565b81016020851015611271578190505b61128561127d8561113d565b830182611224565b50505b505050565b600082821c905092915050565b60006112ab6000198460080261128d565b1980831691505092915050565b60006112c4838361129a565b9150826002028217905092915050565b6112dd82610aed565b67ffffffffffffffff8111156112f6576112f5610c1f565b5b6113008254610fff565b61130b828285611247565b600060209050601f83116001811461133e576000841561132c578287015190505b61133685826112b8565b86555061139e565b601f19841661134c86611128565b60005b828110156113745784890151825560018201915060208501945060208101905061134f565b86831015611391578489015161138d601f89168261129a565b8355505b6001600288020188555050505b505050505050565b60006080820190506113bb6000830187610ade565b81810360208301526113cd8186610b44565b905081810360408301526113e18185610b44565b905081810360608301526113f58184610b44565b90509594505050505056fea2646970667358221220812474569b596b60b964074ea40a2fb57f6f11188b85b763889364f0e3a63a8164736f6c63430008130033",
  "immutableReferences": {},
  "source": "// SPDX-License-Identifier: MIT\r\npragma solidity ^0.8.0;\r\n\r\ncontract LetterOfRecommendation {\r\n    \r\n    // Structure for a letter of recommendation\r\n    struct Recommendation {\r\n        address requester;\r\n        string studentName;\r\n        string university;\r\n        string program;\r\n        string recommendationLetter;\r\n        bool approved;\r\n    }\r\n    \r\n    // Mapping to store recommendations\r\n    mapping (uint256 => Recommendation) public recommendations;\r\n    \r\n    // Event to be emitted when a new recommendation is added\r\n    event NewRecommendation(uint256 indexed id, address requester, string studentName, string university, string program);\r\n    \r\n    // Event to be emitted when a recommendation is approved\r\n    event RecommendationApproved(uint256 indexed id, address approver);\r\n    \r\n    // Function to add a new recommendation\r\n    function addRecommendation(string memory _studentName, string memory _university, string memory _program, string memory _recommendationLetter) public returns (uint256 id) {\r\n        id = uint256(keccak256(abi.encodePacked(block.timestamp, msg.sender, _studentName, _university, _program)));\r\n        recommendations[id] = Recommendation(msg.sender, _studentName, _university, _program, _recommendationLetter, false);\r\n        emit NewRecommendation(id, msg.sender, _studentName, _university, _program);\r\n        return id;\r\n    }\r\n    \r\n    // Function to approve a recommendation\r\n    function approveRecommendation(uint256 id) public {\r\n        require(recommendations[id].requester != address(0), \"Recommendation not found\");\r\n        require(msg.sender != recommendations[id].requester, \"Cannot approve own recommendation\");\r\n        require(!recommendations[id].approved, \"Recommendation already approved\");\r\n        recommendations[id].approved = true;\r\n        emit RecommendationApproved(id, msg.sender);\r\n    }\r\n    \r\n    // Function to get a recommendation by ID\r\n    function getRecommendation(uint256 id) public view returns (address, string memory, string memory, string memory, string memory, bool) {\r\n        return (recommendations[id].requester, recommendations[id].studentName, recommendations[id].university, recommendations[id].program, recommendations[id].recommendationLetter, recommendations[id].approved);\r\n    }\r\n}\r\n",
  "sourcePath": "D:\\Blockchain\\DA\\Project\\contracts\\LetterOfRecommendation.sol",
  "compiler": {
    "name": "solc",
    "version": "0.8.19+commit.7dd6d404.Emscripten.clang"
  },
  "schemaVersion": "3.4.13",
  "updatedAt": "2023-04-02T14:41:24.113Z",
  "networkType": "ethereum",
  "devdoc": {
    "kind": "dev",
    "methods": {},
    "version": 1
  },
  "userdoc": {
    "kind": "user",
    "methods": {},
    "version": 1
  }
}